{
  "_format": "hh-sol-artifact-1",
  "contractName": "RentalAgreement",
  "sourceName": "contracts/RentalAgreement.sol",
  "abi": [
    {
      "inputs": [
        {
          "internalType": "address",
          "name": "_landlord",
          "type": "address"
        },
        {
          "internalType": "address",
          "name": "_tenant",
          "type": "address"
        },
        {
          "internalType": "uint256",
          "name": "_rentAmount",
          "type": "uint256"
        },
        {
          "internalType": "uint256",
          "name": "_depositAmount",
          "type": "uint256"
        },
        {
          "internalType": "uint256",
          "name": "_startDate",
          "type": "uint256"
        },
        {
          "internalType": "uint256",
          "name": "_endDate",
          "type": "uint256"
        },
        {
          "internalType": "string",
          "name": "_terms",
          "type": "string"
        }
      ],
      "stateMutability": "nonpayable",
      "type": "constructor"
    },
    {
      "anonymous": false,
      "inputs": [
        {
          "indexed": true,
          "internalType": "address",
          "name": "tenant",
          "type": "address"
        },
        {
          "indexed": true,
          "internalType": "address",
          "name": "landlord",
          "type": "address"
        },
        {
          "indexed": false,
          "internalType": "uint256",
          "name": "depositAmount",
          "type": "uint256"
        },
        {
          "indexed": false,
          "internalType": "uint256",
          "name": "timestamp",
          "type": "uint256"
        }
      ],
      "name": "AgreementSigned",
      "type": "event"
    },
    {
      "anonymous": false,
      "inputs": [
        {
          "indexed": true,
          "internalType": "address",
          "name": "terminatedBy",
          "type": "address"
        },
        {
          "indexed": false,
          "internalType": "uint256",
          "name": "timestamp",
          "type": "uint256"
        }
      ],
      "name": "AgreementTerminated",
      "type": "event"
    },
    {
      "anonymous": false,
      "inputs": [
        {
          "indexed": true,
          "internalType": "address",
          "name": "tenant",
          "type": "address"
        },
        {
          "indexed": false,
          "internalType": "uint256",
          "name": "amount",
          "type": "uint256"
        },
        {
          "indexed": false,
          "internalType": "uint256",
          "name": "timestamp",
          "type": "uint256"
        }
      ],
      "name": "RentPaid",
      "type": "event"
    },
    {
      "inputs": [],
      "name": "depositAmount",
      "outputs": [
        {
          "internalType": "uint256",
          "name": "",
          "type": "uint256"
        }
      ],
      "stateMutability": "view",
      "type": "function"
    },
    {
      "inputs": [],
      "name": "depositPaid",
      "outputs": [
        {
          "internalType": "bool",
          "name": "",
          "type": "bool"
        }
      ],
      "stateMutability": "view",
      "type": "function"
    },
    {
      "inputs": [],
      "name": "endDate",
      "outputs": [
        {
          "internalType": "uint256",
          "name": "",
          "type": "uint256"
        }
      ],
      "stateMutability": "view",
      "type": "function"
    },
    {
      "inputs": [],
      "name": "getDetails",
      "outputs": [
        {
          "internalType": "address",
          "name": "_landlord",
          "type": "address"
        },
        {
          "internalType": "address",
          "name": "_tenant",
          "type": "address"
        },
        {
          "internalType": "uint256",
          "name": "_rentAmount",
          "type": "uint256"
        },
        {
          "internalType": "uint256",
          "name": "_depositAmount",
          "type": "uint256"
        },
        {
          "internalType": "uint256",
          "name": "_startDate",
          "type": "uint256"
        },
        {
          "internalType": "uint256",
          "name": "_endDate",
          "type": "uint256"
        },
        {
          "internalType": "bool",
          "name": "_isActive",
          "type": "bool"
        },
        {
          "internalType": "bool",
          "name": "_depositPaid",
          "type": "bool"
        },
        {
          "internalType": "uint256",
          "name": "_totalRentPaid",
          "type": "uint256"
        },
        {
          "internalType": "uint256",
          "name": "_lastPaymentDate",
          "type": "uint256"
        }
      ],
      "stateMutability": "view",
      "type": "function"
    },
    {
      "inputs": [],
      "name": "isActive",
      "outputs": [
        {
          "internalType": "bool",
          "name": "",
          "type": "bool"
        }
      ],
      "stateMutability": "view",
      "type": "function"
    },
    {
      "inputs": [],
      "name": "isRentDue",
      "outputs": [
        {
          "internalType": "bool",
          "name": "",
          "type": "bool"
        }
      ],
      "stateMutability": "view",
      "type": "function"
    },
    {
      "inputs": [],
      "name": "landlord",
      "outputs": [
        {
          "internalType": "address",
          "name": "",
          "type": "address"
        }
      ],
      "stateMutability": "view",
      "type": "function"
    },
    {
      "inputs": [],
      "name": "lastPaymentDate",
      "outputs": [
        {
          "internalType": "uint256",
          "name": "",
          "type": "uint256"
        }
      ],
      "stateMutability": "view",
      "type": "function"
    },
    {
      "inputs": [],
      "name": "payRent",
      "outputs": [],
      "stateMutability": "payable",
      "type": "function"
    },
    {
      "inputs": [],
      "name": "rentAmount",
      "outputs": [
        {
          "internalType": "uint256",
          "name": "",
          "type": "uint256"
        }
      ],
      "stateMutability": "view",
      "type": "function"
    },
    {
      "inputs": [],
      "name": "signAndPayDeposit",
      "outputs": [],
      "stateMutability": "payable",
      "type": "function"
    },
    {
      "inputs": [],
      "name": "startDate",
      "outputs": [
        {
          "internalType": "uint256",
          "name": "",
          "type": "uint256"
        }
      ],
      "stateMutability": "view",
      "type": "function"
    },
    {
      "inputs": [],
      "name": "tenant",
      "outputs": [
        {
          "internalType": "address",
          "name": "",
          "type": "address"
        }
      ],
      "stateMutability": "view",
      "type": "function"
    },
    {
      "inputs": [],
      "name": "terminate",
      "outputs": [],
      "stateMutability": "nonpayable",
      "type": "function"
    },
    {
      "inputs": [],
      "name": "terms",
      "outputs": [
        {
          "internalType": "string",
          "name": "",
          "type": "string"
        }
      ],
      "stateMutability": "view",
      "type": "function"
    },
    {
      "inputs": [],
      "name": "totalRentPaid",
      "outputs": [
        {
          "internalType": "uint256",
          "name": "",
          "type": "uint256"
        }
      ],
      "stateMutability": "view",
      "type": "function"
    }
  ],
  "bytecode": "0x608060405234801561001057600080fd5b50604051611b65380380611b6583398181016040528101906100329190610332565b866000806101000a81548173ffffffffffffffffffffffffffffffffffffffff021916908373ffffffffffffffffffffffffffffffffffffffff16021790555085600160006101000a81548173ffffffffffffffffffffffffffffffffffffffff021916908373ffffffffffffffffffffffffffffffffffffffff1602179055508460028190555083600381905550826004819055508160058190555080600690816100de9190610607565b506000600760006101000a81548160ff0219169083151502179055506000600760016101000a81548160ff0219169083151502179055506000600881905550505050505050506106d9565b6000604051905090565b600080fd5b600080fd5b600073ffffffffffffffffffffffffffffffffffffffff82169050919050565b60006101688261013d565b9050919050565b6101788161015d565b811461018357600080fd5b50565b6000815190506101958161016f565b92915050565b6000819050919050565b6101ae8161019b565b81146101b957600080fd5b50565b6000815190506101cb816101a5565b92915050565b600080fd5b600080fd5b6000601f19601f8301169050919050565b7f4e487b7100000000000000000000000000000000000000000000000000000000600052604160045260246000fd5b610224826101db565b810181811067ffffffffffffffff82111715610243576102426101ec565b5b80604052505050565b6000610256610129565b9050610262828261021b565b919050565b600067ffffffffffffffff821115610282576102816101ec565b5b61028b826101db565b9050602081019050919050565b60005b838110156102b657808201518184015260208101905061029b565b60008484015250505050565b60006102d56102d084610267565b61024c565b9050828152602081018484840111156102f1576102f06101d6565b5b6102fc848285610298565b509392505050565b600082601f830112610319576103186101d1565b5b81516103298482602086016102c2565b91505092915050565b600080600080600080600060e0888a03121561035157610350610133565b5b600061035f8a828b01610186565b97505060206103708a828b01610186565b96505060406103818a828b016101bc565b95505060606103928a828b016101bc565b94505060806103a38a828b016101bc565b93505060a06103b48a828b016101bc565b92505060c088015167ffffffffffffffff8111156103d5576103d4610138565b5b6103e18a828b01610304565b91505092959891949750929550565b600081519050919050565b7f4e487b7100000000000000000000000000000000000000000000000000000000600052602260045260246000fd5b6000600282049050600182168061044257607f821691505b602082108103610455576104546103fb565b5b50919050565b60008190508160005260206000209050919050565b60006020601f8301049050919050565b600082821b905092915050565b6000600883026104bd7fffffffffffffffffffffffffffffffffffffffffffffffffffffffffffffffff82610480565b6104c78683610480565b95508019841693508086168417925050509392505050565b6000819050919050565b60006105046104ff6104fa8461019b565b6104df565b61019b565b9050919050565b6000819050919050565b61051e836104e9565b61053261052a8261050b565b84845461048d565b825550505050565b600090565b61054761053a565b610552818484610515565b505050565b5b818110156105765761056b60008261053f565b600181019050610558565b5050565b601f8211156105bb5761058c8161045b565b61059584610470565b810160208510156105a4578190505b6105b86105b085610470565b830182610557565b50505b505050565b600082821c905092915050565b60006105de600019846008026105c0565b1980831691505092915050565b60006105f783836105cd565b9150826002028217905092915050565b610610826103f0565b67ffffffffffffffff811115610629576106286101ec565b5b610633825461042a565b61063e82828561057a565b600060209050601f831160018114610671576000841561065f578287015190505b61066985826105eb565b8655506106d1565b601f19841661067f8661045b565b60005b828110156106a757848901518255600182019150602085019450602081019050610682565b868310156106c457848901516106c0601f8916826105cd565b8355505b6001600288020188555050505b505050505050565b61147d806106e86000396000f3fe6080604052600436106100f35760003560e01c8063c24a0f8b1161008a578063ee0850e411610059578063ee0850e4146102a6578063ef3ab330146102d1578063f8ef1e13146102fc578063fbbf93a014610327576100f3565b8063c24a0f8b146101fa578063d502562514610225578063d997d92b14610250578063dc1997ea1461027b576100f3565b80637aeabb39116100c65780637aeabb3914610190578063a48187c6146101bb578063a709c4fe146101c5578063adf07791146101cf576100f3565b80630b97bc86146100f85780630c08bf881461012357806322f3e2d41461013a578063419759f514610165575b600080fd5b34801561010457600080fd5b5061010d61035b565b60405161011a9190610cbc565b60405180910390f35b34801561012f57600080fd5b50610138610361565b005b34801561014657600080fd5b5061014f6104a9565b60405161015c9190610cf2565b60405180910390f35b34801561017157600080fd5b5061017a6104bc565b6040516101879190610cbc565b60405180910390f35b34801561019c57600080fd5b506101a56104c2565b6040516101b29190610cbc565b60405180910390f35b6101c36104c8565b005b6101cd6107eb565b005b3480156101db57600080fd5b506101e4610ab5565b6040516101f19190610d4e565b60405180910390f35b34801561020657600080fd5b5061020f610adb565b60405161021c9190610cbc565b60405180910390f35b34801561023157600080fd5b5061023a610ae1565b6040516102479190610df9565b60405180910390f35b34801561025c57600080fd5b50610265610b6f565b6040516102729190610cf2565b60405180910390f35b34801561028757600080fd5b50610290610bbb565b60405161029d9190610d4e565b60405180910390f35b3480156102b257600080fd5b506102bb610bdf565b6040516102c89190610cbc565b60405180910390f35b3480156102dd57600080fd5b506102e6610be5565b6040516102f39190610cf2565b60405180910390f35b34801561030857600080fd5b50610311610bf8565b60405161031e9190610cbc565b60405180910390f35b34801561033357600080fd5b5061033c610bfe565b6040516103529a99989796959493929190610e1b565b60405180910390f35b60045481565b60008054906101000a900473ffffffffffffffffffffffffffffffffffffffff1673ffffffffffffffffffffffffffffffffffffffff163373ffffffffffffffffffffffffffffffffffffffff16146103ef576040517f08c379a00000000000000000000000000000000000000000000000000000000081526004016103e690610f03565b60405180910390fd5b600760009054906101000a900460ff1661043e576040517f08c379a000000000000000000000000000000000000000000000000000000000815260040161043590610f6f565b60405180910390fd5b6000600760006101000a81548160ff0219169083151502179055503373ffffffffffffffffffffffffffffffffffffffff167fbcc1fc93b3c0fc48ab621cac6b87c3cf66f0272e74b0b88f8bb5adb3521ade334260405161049f9190610cbc565b60405180910390a2565b600760009054906101000a900460ff1681565b60035481565b60095481565b600160009054906101000a900473ffffffffffffffffffffffffffffffffffffffff1673ffffffffffffffffffffffffffffffffffffffff163373ffffffffffffffffffffffffffffffffffffffff1614610558576040517f08c379a000000000000000000000000000000000000000000000000000000000815260040161054f90610fdb565b60405180910390fd5b600760009054906101000a900460ff16156105a8576040517f08c379a000000000000000000000000000000000000000000000000000000000815260040161059f90611047565b60405180910390fd5b600760019054906101000a900460ff16156105f8576040517f08c379a00000000000000000000000000000000000000000000000000000000081526004016105ef906110b3565b60405180910390fd5b600354341461063c576040517f08c379a00000000000000000000000000000000000000000000000000000000081526004016106339061111f565b60405180910390fd5b6001600760016101000a81548160ff0219169083151502179055506001600760006101000a81548160ff02191690831515021790555060008060009054906101000a900473ffffffffffffffffffffffffffffffffffffffff1673ffffffffffffffffffffffffffffffffffffffff16346040516106b990611170565b60006040518083038185875af1925050503d80600081146106f6576040519150601f19603f3d011682016040523d82523d6000602084013e6106fb565b606091505b505090508061073f576040517f08c379a0000000000000000000000000000000000000000000000000000000008152600401610736906111f7565b60405180910390fd5b60008054906101000a900473ffffffffffffffffffffffffffffffffffffffff1673ffffffffffffffffffffffffffffffffffffffff16600160009054906101000a900473ffffffffffffffffffffffffffffffffffffffff1673ffffffffffffffffffffffffffffffffffffffff167fd1a51891ceafa0668033678921f7ff3c63a6d6d2f66c57b5b4f2ced4779b38f634426040516107e0929190611217565b60405180910390a350565b600160009054906101000a900473ffffffffffffffffffffffffffffffffffffffff1673ffffffffffffffffffffffffffffffffffffffff163373ffffffffffffffffffffffffffffffffffffffff161461087b576040517f08c379a000000000000000000000000000000000000000000000000000000000815260040161087290610fdb565b60405180910390fd5b600760009054906101000a900460ff166108ca576040517f08c379a00000000000000000000000000000000000000000000000000000000081526004016108c190610f6f565b60405180910390fd5b600254341461090e576040517f08c379a00000000000000000000000000000000000000000000000000000000081526004016109059061128c565b60405180910390fd5b600554421115610953576040517f08c379a000000000000000000000000000000000000000000000000000000000815260040161094a906112f8565b60405180910390fd5b34600860008282546109659190611347565b925050819055504260098190555060008060009054906101000a900473ffffffffffffffffffffffffffffffffffffffff1673ffffffffffffffffffffffffffffffffffffffff16346040516109ba90611170565b60006040518083038185875af1925050503d80600081146109f7576040519150601f19603f3d011682016040523d82523d6000602084013e6109fc565b606091505b5050905080610a40576040517f08c379a0000000000000000000000000000000000000000000000000000000008152600401610a37906113c7565b60405180910390fd5b600160009054906101000a900473ffffffffffffffffffffffffffffffffffffffff1673ffffffffffffffffffffffffffffffffffffffff167f33d9ffd7947b17c37c9905165c01183282058f1cb2252c9be395887d078572ad3442604051610aaa929190611217565b60405180910390a250565b600160009054906101000a900473ffffffffffffffffffffffffffffffffffffffff1681565b60055481565b60068054610aee90611416565b80601f0160208091040260200160405190810160405280929190818152602001828054610b1a90611416565b8015610b675780601f10610b3c57610100808354040283529160200191610b67565b820191906000526020600020905b815481529060010190602001808311610b4a57829003601f168201915b505050505081565b6000600760009054906101000a900460ff16610b8e5760009050610bb8565b600060095403610ba15760019050610bb8565b62278d00600954610bb29190611347565b42101590505b90565b60008054906101000a900473ffffffffffffffffffffffffffffffffffffffff1681565b60085481565b600760019054906101000a900460ff1681565b60025481565b60008060008060008060008060008060008054906101000a900473ffffffffffffffffffffffffffffffffffffffff16600160009054906101000a900473ffffffffffffffffffffffffffffffffffffffff16600254600354600454600554600760009054906101000a900460ff16600760019054906101000a900460ff16600854600954995099509950995099509950995099509950995090919293949596979899565b6000819050919050565b610cb681610ca3565b82525050565b6000602082019050610cd16000830184610cad565b92915050565b60008115159050919050565b610cec81610cd7565b82525050565b6000602082019050610d076000830184610ce3565b92915050565b600073ffffffffffffffffffffffffffffffffffffffff82169050919050565b6000610d3882610d0d565b9050919050565b610d4881610d2d565b82525050565b6000602082019050610d636000830184610d3f565b92915050565b600081519050919050565b600082825260208201905092915050565b60005b83811015610da3578082015181840152602081019050610d88565b60008484015250505050565b6000601f19601f8301169050919050565b6000610dcb82610d69565b610dd58185610d74565b9350610de5818560208601610d85565b610dee81610daf565b840191505092915050565b60006020820190508181036000830152610e138184610dc0565b905092915050565b600061014082019050610e31600083018d610d3f565b610e3e602083018c610d3f565b610e4b604083018b610cad565b610e58606083018a610cad565b610e656080830189610cad565b610e7260a0830188610cad565b610e7f60c0830187610ce3565b610e8c60e0830186610ce3565b610e9a610100830185610cad565b610ea8610120830184610cad565b9b9a5050505050505050505050565b7f4f6e6c79206c616e646c6f72642063616e20646f207468697300000000000000600082015250565b6000610eed601983610d74565b9150610ef882610eb7565b602082019050919050565b60006020820190508181036000830152610f1c81610ee0565b9050919050565b7f41677265656d656e74206973206e6f7420616374697665000000000000000000600082015250565b6000610f59601783610d74565b9150610f6482610f23565b602082019050919050565b60006020820190508181036000830152610f8881610f4c565b9050919050565b7f4f6e6c792074656e616e742063616e20646f2074686973000000000000000000600082015250565b6000610fc5601783610d74565b9150610fd082610f8f565b602082019050919050565b60006020820190508181036000830152610ff481610fb8565b9050919050565b7f41677265656d656e7420616c7265616479207369676e65640000000000000000600082015250565b6000611031601883610d74565b915061103c82610ffb565b602082019050919050565b6000602082019050818103600083015261106081611024565b9050919050565b7f4465706f73697420616c72656164792070616964000000000000000000000000600082015250565b600061109d601483610d74565b91506110a882611067565b602082019050919050565b600060208201905081810360008301526110cc81611090565b9050919050565b7f496e636f7272656374206465706f73697420616d6f756e740000000000000000600082015250565b6000611109601883610d74565b9150611114826110d3565b602082019050919050565b60006020820190508181036000830152611138816110fc565b9050919050565b600081905092915050565b50565b600061115a60008361113f565b91506111658261114a565b600082019050919050565b600061117b8261114d565b9150819050919050565b7f4661696c656420746f2073656e64206465706f73697420746f206c616e646c6f60008201527f7264000000000000000000000000000000000000000000000000000000000000602082015250565b60006111e1602283610d74565b91506111ec82611185565b604082019050919050565b60006020820190508181036000830152611210816111d4565b9050919050565b600060408201905061122c6000830185610cad565b6112396020830184610cad565b9392505050565b7f496e636f72726563742072656e7420616d6f756e740000000000000000000000600082015250565b6000611276601583610d74565b915061128182611240565b602082019050919050565b600060208201905081810360008301526112a581611269565b9050919050565b7f4c65617365206861732065787069726564000000000000000000000000000000600082015250565b60006112e2601183610d74565b91506112ed826112ac565b602082019050919050565b60006020820190508181036000830152611311816112d5565b9050919050565b7f4e487b7100000000000000000000000000000000000000000000000000000000600052601160045260246000fd5b600061135282610ca3565b915061135d83610ca3565b925082820190508082111561137557611374611318565b5b92915050565b7f4661696c656420746f2073656e642072656e7420746f206c616e646c6f726400600082015250565b60006113b1601f83610d74565b91506113bc8261137b565b602082019050919050565b600060208201905081810360008301526113e0816113a4565b9050919050565b7f4e487b7100000000000000000000000000000000000000000000000000000000600052602260045260246000fd5b6000600282049050600182168061142e57607f821691505b602082108103611441576114406113e7565b5b5091905056fea2646970667358221220bc48200cbff01be6901b9f0e8e971e2180fad14654d85a3e636f1383317f02c664736f6c634300081c0033",
  "linkReferences": {},
  "deployedLinkReferences": {}
}